:020000023000CC
:10E000000D9489F10D94B2F10D94B2F10D94B2F129
:10E010000D94B2F10D94B2F10D94B2F10D94B2F1F0
:10E020000D94B2F10D94B2F10D94B2F10D94B2F1E0
:10E030000D94B2F10D94B2F10D94B2F10D94B2F1D0
:10E040000D94B2F10D94B2F10D94B2F10D94B2F1C0
:10E050000D94B2F10D94B2F10D94B2F10D94B2F1B0
:10E060000D94B2F10D94B2F10D94B2F10D94B2F1A0
:10E070000D94B2F10D94B2F10D94B2F10D94B2F190
:10E080000D94B2F10D94B2F10D94B2F10D94B2F180
:10E090000D94B2F10D94B2F10D94B2F10D94B2F170
:10E0A0000D94B2F10D94B2F10D94B2F10D94B2F160
:10E0B0000D94B2F10D94B2F10D94B2F10D94B2F150
:10E0C0000D94B2F10D94B2F10D94B2F10D94B2F140
:10E0D0000D94B2F10D94B2F10D94B2F10D94B2F130
:10E0E0000D94B2F12A00593D506F727420626C6930
:10E0F0006E6B00563D73686F7720696E746572723F
:10E1000075707420566563746F727300523D447568
:10E110006D702052414D00513D51756974004C3D68
:10E120004C69737420492F4F20506F7274730048EC
:10E130003D48656C7000463D44756D7020464C410D
:10E14000534800453D44756D7020454550524F4D34
:10E1500000423D426C696E6B204C454400403D4599
:10E160004550524F4D2074657374003F3D435055E8
:10E1700020737461747300303D5A65726F2061645E
:10E18000647200504F5254004545206572722063FE
:10E190006E743D0052656164696E672045450057A5
:10E1A00072697474696E672045450020004D75736F
:10E1B000742062652061206C657474657200506F14
:10E1C0007274206E6F7420737570706F72746564F2
:10E1D000005768617420706F72743A006A6D702025
:10E1E00000726A6D702020006E6F20766563746F18
:10E1F00072005623202020414444522020206F707A
:10E2000020636F64652020202020696E737472750E
:10E210006374696F6E2061646472202020496E749B
:10E2200065727275707400372E332E3000322E30C6
:10E230002E30004D61722020372032303230004CB9
:10E240006F636B20667573652020203D2000457844
:10E25000742066757365202020203D200048696782
:10E260006820667573652020203D20004C6F772064
:10E2700066757365202020203D20004350552049BD
:10E28000442020202020203D200047434320566585
:10E290007273696F6E203D2000415652204C6962B6
:10E2A00043205665723D20005F5F4156525F4152E8
:10E2B00043485F5F3D2000435055205479706520EE
:10E2C0002020203D2000436F6D70696C6564206FD5
:10E2D0006E203D20004875683F00426F6F746C6F80
:10E2E000616465723E0041726475696E6F20657885
:10E2F000706C6F7265722073746B353030563220DB
:10E300006279204D4C530041546D6567613235365A
:10E31000300011241FBECFEFD1E2DEBFCDBF01E040
:10E320000CBF12E0A0E0B2E0E8E2F8EF03E00BBFC0
:10E3300002C007900D92A430B107D9F722E0A4E003
:10E34000B2E001C01D92A231B207E1F70F94EDF2E5
:10E350000D9412FC01E20EBF0FEF0DBF11241FBE82
:10E360000D94EDF20D9400F08093C6008091C000F2
:10E3700086FFFCCF8091C00080648093C000089528
:10E3800030E020E02817390709F40895EFECF7E0B2
:10E390003197F1F700C000002F5F3F4FF3CFCF93CD
:10E3A000DF93EC01C60FD11DCE01B0E0A0E0ABBF02
:10E3B000FC018791882321F021960F94B4F1F4CFCA
:10E3C000DF91CF9108958DE00F94B4F18AE00D9420
:10E3D000B4F10F94CFF10D94E3F1CF93DF93EC01FF
:10E3E0008991882319F00F94B4F1FACFDF91CF917E
:10E3F0000895CF93C82F982F92959F7080E3890F2F
:10E400008A3310F087E3890F0F94B4F1CF7080E363
:10E410008C0F8A3310F087E38C0FCF910D94B4F1F9
:10E420000F931F93CF93DF93EC018B0185369105FA
:10E430001CF4633071054CF0CE0164E670E00F947B
:10E44000ABFB80E3860F0F94B4F1CB30D1051CF405
:10E45000023011056CF0CE0164E670E00F94ABFB66
:10E460006AE070E00F94ABFB80E3860F0F94B4F189
:10E47000CE016AE070E00F94ABFB805DDF91CF913D
:10E480001F910F910D94B4F18091C00087FFFCCFD4
:10E490008091C6000895CF93C82F60E083E891EE85
:10E4A0000F94CFF18C2F0F94B4F1CF910D94E3F131
:10E4B0002F923F924F925F926F927F928F929F9294
:10E4C000AF92BF92CF92DF92EF92FF920F931F9382
:10E4D000CF93DF93CDB7DEB763970FB6F894DEBF67
:10E4E0000FBECDBF8B8B6A017B0180E1A82E4E0150
:10E4F00081E1880E911CE1E0CE16D104EE06F10414
:10E5000018F08E2D0F94F9F18D2D0F94F9F18C2DBB
:10E510000F94F9F180E20F94B4F18DE20F94B4F10D
:10E5200080E20F94B4F119828E010F5F1F4F260114
:10E5300037011801FB89F13009F443C0F23009F4C6
:10E5400045C06BBEF201B7908B2D0F94F9F180E2BC
:10E550000F94B4F180EE8B0D8F35D8F5F801B082B1
:10E56000EFEF4E1A5E0A6E0A7E0A0F5F1F4F081504
:10E57000190501F7F0E1CF0ED11CE11CF11C198A3D
:10E58000C1010F94EDF10F94E3F1AA94A110B3CF60
:10E5900063960FB6F894DEBF0FBECDBFDF91CF916B
:10E5A0001F910F91FF90EF90DF90CF90BF90AF90B1
:10E5B0009F908F907F906F905F904F903F902F90A3
:10E5C0000895C2010F94FCFBB82EBECFF201B080BB
:10E5D000BBCF8EE2F8018083C3CFCF93DF93CDB75B
:10E5E000DEB7C753D1400FB6F894DEBF0FBECDBF24
:10E5F00024B7C55DDE4F2883CB52D140F894A8954F
:10E6000014BE809160008861809360001092600069
:10E61000789423FF04C0222EEE27FF270994279A1F
:10E620002F9A8091C00082608093C00080E1809327
:10E63000C40088E18093C100000010E000E0C12C1C
:10E64000D12C7601F7EC8F2EFBE19F2EA12CB12C63
:10E650008091C00087FD03C00115110561F1012BF8
:10E6600009F0F0C6C45DDE4F19821882CC52D14049
:10E67000F12CE12CCE5DDE4F19821882C252D140BE
:10E68000CC5DDE4F188219821A821B82C452D1409F
:10E69000212C312C210141E050E0C85DDE4F188271
:10E6A000C852D140B12C9E012F5F3F4F390130E05D
:10E6B00020E080E07BC535E03A95F1F700004FEFB0
:10E6C000C41AD40AE40AF40A91E080E051E2C516C3
:10E6D0005EE4D506E104F10408F490E0092F182F58
:10E6E000C701B601A50194010F94BFFB672B682BEE
:10E6F000692B09F0ADCF85B1805885B9A9CF4150BC
:10E7000051096109710971F46BBFFA014791569182
:10E710004F3F5F4F19F0EE27FF27099441E052E188
:10E720006AE770E09091C00097FFE9CF43C51234CB
:10E7300009F4A8C1153409F0ACC562E083E491EE98
:10E740000F94E9F14091060250910702609108028E
:10E750007091090281E00F9458F280910602909125
:10E760000702A0910802B09109029F5FAF4FBF4F0F
:10E770008093060290930702A0930802B0930902C7
:10E7800081159041A105B10508F460C573C011352C
:10E7900009F4F7C168F5183409F4B1C11C3409F063
:10E7A00078C562E08EE191EE0F94E9F181E40F9477
:10E7B0004BF282E40F944BF283E40F944BF284E427
:10E7C0000F944BF285E40F944BF286E40F944BF2D6
:10E7D00087E40F944BF288E40F944BF28AE40F9491
:10E7E0004BF28BE40F944BF28CE40F944BF22EC55A
:10E7F000163509F4FDC1193509F4B7C3123509F00E
:10E8000048C562E08CE091EE0F94E9F140910E0270
:10E8100050910F02609110027091110282E00F94EA
:10E8200058F280910E0290910F02A0911002B091C7
:10E8300011029F5FAF4FBF4F80930E0290930F0264
:10E84000A0931002B093110201C562E087E791EE38
:10E850000F94E9F110920A0210920B0210920C022E
:10E8600010920D0210920E0210920F0210921002DE
:10E8700010921102109206021092070210920802E2
:10E8800010920902E3C462E08BE691EE0F94E9F185
:10E8900060E086EE92EE0F94E9F160E086EC92EE95
:10E8A0000F94CFF160E083E392EE0F94E9F160E022
:10E8B00087EB92EE0F94CFF160E087E093EE0F9438
:10E8C000E9F160E088EA92EE0F94CFF186E30F94CD
:10E8D000B4F10F94E3F160E08AE892EE0F94CFF187
:10E8E00060E087E292EE0F94E9F160E089E992EE50
:10E8F0000F94CFF160E08DE292EE0F94E9F160E0C9
:10E900008BE792EE0F94CFF18EE10F94F9F188E945
:10E910000F94F9F181E00F94F9F10F94E3F160E0C5
:10E920008CE692EE0F94CFF129E0F0E0E0E0209346
:10E93000570084910F94F9F10F94E3F160E08DE5B5
:10E9400092EE0F94CFF129E0E3E0F0E0209357003E
:10E9500084910F94F9F10F94E3F160E08EE492EE6C
:10E960000F94CFF1E2E0F0E039E03093570084916A
:10E970000F94F9F10F94E3F160E08FE392EE0F94BE
:10E98000CFF1E1E0F0E049E04093570084910F942B
:10E99000F9F10F94E3F15AC462E08DE591EE0F9422
:10E9A000E9F160E08FE991EE0F94E9F10F94E3F162
:10E9B000F12CE12CC7018A519D41B0E0A0E0ABBF32
:10E9C000FC0117911A3221F0E11482E0F80681F57A
:10E9D0000F94E3F10F94E3F160E084E991EE0F947A
:10E9E000E9F10F94E3F1D12CC12CF12CE12CC701FA
:10E9F0008A519D41B0E0A0E0ABBFFC0117911A32F3
:10EA000021F0E114B2E0FB0631F50F94E3F10F942D
:10EA1000E3F160E088E891EE0F94CFF161E070E0FF
:10EA2000C6010F9410F20F94E3F10F94E3F122CF9B
:10EA3000612FC7010F9404FC111109C060E08BEA3B
:10EA400091EE0F94CFF15FEFE51AF50AB3CF812F66
:10EA50000F94B4F1F8CFC7010F94FCFBB82E8111CD
:10EA60000EC060E08BEA91EE0F94CFF1B11619F071
:10EA70009FEFC91AD90AAFEFEA1AFA0AB8CF0F9472
:10EA8000B4F1F4CF62E081E591EE0F94E9F1279AB9
:10EA90002F9A8091C00087FF03C00F9444F2D6C321
:10EAA0002F9884E690E00F94C0F12F9A84E690E0CE
:10EAB0000F94C0F1EECF62E086E391EE0F94E9F19E
:10EAC00040910A0250910B0260910C0270910D026C
:10EAD00080E00F9458F280910A0290910B02A0916D
:10EAE0000C02B0910D029F5FAF4FBF4F80930A029F
:10EAF00090930B02A0930C02B0930D02A7C362E0A7
:10EB00008FE291EE0F94E9F160E087E791EE0F94C8
:10EB1000E9F160E08BE691EE0F94E9F160E08DE5BC
:10EB200091EE0F94E9F160E081E591EE0F94E9F147
:10EB300060E083E491EE0F94E9F160E086E391EE0A
:10EB40000F94E9F160E08FE291EE0F94E9F160E05B
:10EB50008EE191EE0F94E9F160E087E191EE0F9480
:10EB6000E9F160E08CE091EE0F94E9F160E083EF71
:10EB700090EE0F94E9F160E086EE90EE0F94E9F1EB
:10EB800065C362E087E191EE0F94E9F1F12CE12C8D
:10EB9000F1E0C25EDE4FF883CE51D14029812331AE
:10EBA00009F4F0C408F0C1C3263009F4DEC408F04B
:10EBB000B1C3223009F48CC4233009F475C4213068
:10EBC00009F0B0C31A8288E08B8381E48C8386E5E8
:10EBD0008D8382E58E8389E48F8383E5888780E552
:10EBE00089878FE58A8782E38B870BE010E0EAC391
:10EBF00062E083EF90EE0F94E9F160E087E093EE3E
:10EC00000F94E9F160E082EF91EE0F94E9F1C75DB6
:10EC1000DE4F19821882C952D140C25EDE4F18827F
:10EC200019821A821B82CE51D140C25EDE4F2881EA
:10EC300039814A815B81CE51D140569547953795B0
:10EC40002795C25DDE4F288339834A835B83CE528A
:10EC5000D140C75DDE4F48815981C952D1404F5FD5
:10EC60005F4FC75DDE4F59834883C952D14062E090
:10EC700070E0CA010F9410F280E20F94B4F18DE2BB
:10EC80000F94B4F180E20F94B4F180E00F94F9F1A5
:10EC9000C25DDE4F8881CE52D1400F94F9F180E2FF
:10ECA0000F94B4F18DE30F94B4F180E20F94B4F1BA
:10ECB000C25EDE4F88819981AA81BB81CE51D1404D
:10ECC000ABBFFC019791CA5CDE4F9883C653D1401D
:10ECD000892E912CB12CA12CC25EDE4F88819981A6
:10ECE000AA81BB81CE51D1400196A11DB11DABBF00
:10ECF000FC018791282F30E050E040E0CE5CDE4FF1
:10ED0000288339834A835B83C253D140C25EDE4F7E
:10ED1000488159816A817B81CE51D1404E5F5F4FDE
:10ED20006F4F7F4F6BBFFA013791C95CDE4F38835D
:10ED3000C753D140C25EDE4F488159816A817B81D1
:10ED4000CE51D1404D5F5F4F6F4F7F4F6BBFFA0188
:10ED50001791C25EDE4F288139814A815B81CE5195
:10ED6000D1402C5F3F4F4F4F5F4FC25EDE4F288335
:10ED700039834A835B83CE51D140CE5CDE4F2881FC
:10ED800039814A815B81C253D140CC24D22EE32EFB
:10ED9000F42EC80CD91CEA1CFB1C0F94F9F180E27C
:10EDA0000F94B4F1CA5CDE4F8881C653D1400F94F2
:10EDB000F9F180E20F94B4F1812F0F94F9F180E220
:10EDC0000F94B4F1C95CDE4F8881C753D1400F94D2
:10EDD000F9F180E20F94B4F13FEFC316D306E104DA
:10EDE000F10491F460E088EE91EE0F94CFF10F946E
:10EDF000E3F1C75DDE4F28813981C952D140293303
:10EE0000310509F012CF22C2D701C6018827907CB4
:10EE1000AA27BB278115904CA105B10579F55FE3C1
:10EE2000D522EE24FF24C25DDE4F88809980AA801F
:10EE3000BB80CE52D1408C0C9D1CAE1CBF1C880CDC
:10EE4000991CAA1CBB1C60E081EE91EE0F94CFF1DF
:10EE50008D2D0F94F9F18C2D0F94F9F180E20F9420
:10EE6000B4F18EE30F94B4F180E00F94F9F1892DA1
:10EE70000F94F9F1882D0F94F9F1B9CF8EE0C822E3
:10EE8000E894D0F8EE24FF249CE0C91694E9D90652
:10EE9000E104F10409F0ABCFB4015527442744271E
:10EEA000552761707727E1E1880C991CAA1CBB1CCF
:10EEB000EA95D1F788249924A0EEAA22A1E0BA22EB
:10EEC000482959296A297B29812F90E0B0E0A0E0E8
:10EED000BA2FA92F982F8827C95CDE4FE881C75326
:10EEE000D1408E0F911DA11DB11DCE5CDE4F8880DB
:10EEF0009980AA80BB80C253D14015E1880C991C2F
:10EF0000AA1CBB1C1A95D1F788249924F0E2AF22E1
:10EF1000BB24880D991DAA1DBB1D4A015B01880EEB
:10EF2000991EAA1EBB1E75016401CC0CDD1CEE1CD3
:10EF3000FF1C60E08CED91EE0F94CFF18A2D0F94C1
:10EF4000F9F1892D0F94F9F1882D0F94F9F180E2F0
:10EF50000F94B4F18EE30F94B4F18E2D0F94F9F168
:10EF60008D2D0F94F9F18C2D86CF62E086EE90EE18
:10EF70000F94E9F160E081ED91EE0F94CFF10F94E1
:10EF800044F2182F1F75812F0F94B4F10F94E3F101
:10EF90008FEB810F8A3108F0D9C0163409F47EC096
:10EFA000C8F4133409F454C048F4113499F11234FC
:10EFB00009F43FC060E08EEB91EEE0CD143409F42B
:10EFC00056C01534B9F70DB98091C00087FF5EC0F7
:10EFD0001EB863CD1A3409F489C070F4173409F4EB
:10EFE0006CC0183439F7009301018091C00087FF8D
:10EFF00073C01092020151CD1B3409F48AC01C3435
:10F00000C9F600930A018091C00087FF95C0109255
:10F010000B0143CD01B98091C00087FF02C012B837
:10F020003CCD82B1809582B988EC90E00F94C0F11C
:10F03000F2CF04B98091C00087FF02C015B82DCD72
:10F0400085B1809585B988EC90E00F94C0F1F2CF3E
:10F0500007B98091C00087FF02C018B81ECD88B1E3
:10F06000809588B988EC90E00F94C0F1F2CF0AB98E
:10F070008091C00087FF02C01BB80FCD8BB1809577
:10F080008BB988EC90E00F94C0F1F2CF8EB18095EF
:10F090008EB988EC90E00F94C0F196CF00BB8091C0
:10F0A000C00087FF02C011BAF8CC81B3809581BB44
:10F0B00088EC90E00F94C0F1F2CF03BB8091C000C8
:10F0C00087FF02C014BAE9CC84B3809584BB88EC76
:10F0D00090E00F94C0F1F2CF80910201809580936F
:10F0E000020188EC90E00F94C0F17FCF00930401FF
:10F0F0008091C00087FF03C010920501CECC8091A3
:10F10000050180958093050188EC90E00F94C0F193
:10F11000EFCF009307018091C00087FF03C01092DA
:10F120000801BBCC8091080180958093080188EC90
:10F1300090E00F94C0F1EFCF80910B018095809308
:10F140000B0188EC90E00F94C0F15DCF60E08DEA98
:10F1500091EE14CD833009F4AAC068F4813009F42B
:10F160009CC0E8F0F12CE12C292F30E0322F22272F
:10F17000B92683E019C0853009F4ADC008F49DC0FC
:10F18000F12CE12C863009F4E1C2F12CE12C87301E
:10F1900059F4C25EDE4F1882CE51D140FFCCF12C23
:10F1A000E12C9B3109F4B3C250E040E041305105FD
:10F1B00009F0B4CA9091C600C45DDE4FA881B98140
:10F1C000CC52D1401196C45DDE4FB983A883CC5296
:10F1D000D140913209F0BECF1A9708F0A4C2BFEF18
:10F1E000EB1AFB0AE3E0EE16F10409F09EC2E5E03B
:10F1F000EE2EF12C09E110E081E20F94B4F1015000
:10F200001109D1F70F94E3F1F1E0EF1AF10891F74A
:10F2100010920E0210920F02109210021092110220
:10F2200010920A0210920B0210920C0210920D0220
:10F230001092060210920702109208021092090220
:10F2400060E086EE92EE0F94E9F10FEF60E08AED58
:10F2500092EE0F94CFF10F9444F2182F803608F0FD
:10F260001F751032B0F0812F0F94B4F180E20F942B
:10F27000B4F1163409F41FCC08F089CA103409F42B
:10F280008BCB08F054CA103309F4DFCA1F3309F4DA
:10F29000FACA60E085ED92EE71CCF12CE12CB92632
:10F2A000C85DDE4F9883C852D14082E07DCFF12CFB
:10F2B000E12C292BB92684E077CFF12CE12C9E306C
:10F2C00009F047C2B926CE5DDE4F19821882C252BC
:10F2D000D14085E069CFF12CE12CCE5DDE4F488135
:10F2E0005981C252D1404F5F5F4FCE5DDE4FE88102
:10F2F000F981C252D140E60DF71D9083B92642171D
:10F30000530709F408C2CE5DDE4F59834883C252C9
:10F31000D140DFCF213109F4D5C008F019C1203127
:10F3200009F4D6C080EC8A83D4C0283109F4ECC03B
:10F3300050F5253109F426C110F0263199F78A815C
:10F340009B819827892798278C010D5F1F4F1A8270
:10F35000243109F0A5C1D3014BBEF10127913691AB
:10F3600012962C931297FD01349613963C931397A3
:10F3700022E0220E311C411C511C0297129600976C
:10F3800059F710821FC02A3109F4B2C008F4D1C065
:10F390002B3109F4A1C02D3109F0C4CF9D819033E8
:10F3A00009F06AC08F81882309F47AC0813009F09E
:10F3B00079C088E91A821B829C831D828E831F82FA
:10F3C00007E010E08BE10F94B4F1C85DDE4F888157
:10F3D000C852D1400F94B4F1812F0F94B4F1802F13
:10F3E0000F94B4F195E1B92EC85DDE4F3881C85253
:10F3F000D140B326B0268EE00F94B4F1B126AE0111
:10F400004F5F5F4F6A01040F151F0C151D0509F0B2
:10F4100072C18B2D0F94B4F1C85DDE4FB881C85214
:10F42000D140BF5FC85DDE4FB883C852D14085B1BF
:10F43000805885B9C25EDE4FE881CE51D140EE23BF
:10F4400009F461C127982F9884E690E00F94C0F1E9
:10F4500000008091C0008D7F8093C00081E1809387
:10F460005700E895C55DDE4FF881CB52D1402F2E75
:10F47000EE27FF270994FFCF892F807509F49ACFD3
:10F4800089E0F0E0E0E0903539F080E0983509F06F
:10F4900091CF89E0E3E0F0E08093570084918ACF38
:10F4A0008EE188CF81E086CFEA81E05980E0E330C9
:10F4B00020F4F0E0E050FE4F80811A828B8303E05D
:10F4C00010E080CFF1E0C25EDE4FF883CE51D14034
:10F4D0001A8202E010E076CF8D81882329F08130F6
:10F4E00029F488E91A820BC08EE1FCCF81E0FACFC3
:10F4F0001A8289E0E1E0F0E08093570084918B83E9
:10F500001C8204E010E05ECF8B81803571F48C8129
:10F51000883039F489E0E2E0F0E08093570084918C
:10F52000E1CF89E0F0E0E0E0F8CF89E0E3E0F0E06F
:10F53000F4CF8D81836C99E0E1E0F0E0082E9093A8
:10F540005700E89507B600FCFDCF1A821B82B7CFA3
:10F5500080EC8A8302E010E0CC5DDE4F18821982D5
:10F560001A821B82C452D1402DCF6A817B818C814B
:10F570009D810F94E1FB1B012C01220C331C441CC8
:10F58000551CA6CF0A811B81102701271027233184
:10F5900009F05DC0CC5DDE4F288139814A815B81F5
:10F5A000C452D140211580EC380783E0480751054B
:10F5B000E8F483E0F90140935B0080935700E895FD
:10F5C00007B600FCFDCFCC5DDE4F288139814A8132
:10F5D0005B81C452D1403F5F4F4F5F4FCC5DDE4FE8
:10F5E000288339834A835B83C452D1408B85DE01F3
:10F5F0001196B201A10121E01B969C911B970C0171
:10F60000FA0160935B0020935700E89511244E5F48
:10F610005F4F6F4F7F4F0250110912960115110570
:10F6200021F01A968C911A97E7CF35E0F1014092BC
:10F630005B0030935700E89507B600FCFDCF81E1F1
:10F6400080935700E8951A821A012B0142CFD2010C
:10F65000C101B695A795979587954301800E911E98
:10F6600063015C01A618B7088C149D0469F430E0AE
:10F6700020E0000F111F221F331FB901A801420D06
:10F68000531D641D751DDFCFD6011A966C91C501FF
:10F690008C0D9D1D0F9404FCBFEFCB1ADB0AE4CF49
:10F6A000F3019301280F391FB201A10141BD852E3D
:10F6B000962EA72EBB2482BC4F5F5F4F6F4F7F4FAC
:10F6C000F89AA0B5A2833196E217F30779F7AC0157
:10F6D0004150510970E060E04F5F5F4F6F4F7F4FC7
:10F6E000240E351E461E571EE3E0F0E0EC0FFD1F12
:10F6F000E80FF91F46CED601AD906D018A2D0F940B
:10F70000B4F1BA2482CE50E040E00D9457F38BE17F
:10F71000B82E81E049CDCE5DDE4F39832883C252B9
:10F72000D14086E041CDF12CE12C833009F4C1CDEC
:10F7300030F4813009F4B3CD08F436CD15CD8530E1
:10F7400009F4CBCD30F0863009F021CD9B1509F4BA
:10F7500020CD80E029CD97FB072E16F4009407D02A
:10F7600077FD09D00F94E8FB07FC05D03EF4909597
:10F7700081959F4F0895709561957F4F0895A1E2FF
:10F780001A2EAA1BBB1BFD010DC0AA1FBB1FEE1F1B
:10F79000FF1FA217B307E407F50720F0A21BB30B66
:10F7A000E40BF50B661F771F881F991F1A9469F7E2
:10F7B00060957095809590959B01AC01BD01CF013E
:10F7C0000895692796276927782787277827089536
:10F7D000AA1BBB1B51E107C0AA1FBB1FA617B70777
:10F7E00010F0A61BB70B881F991F5A95A9F7809593
:10F7F0009095BC01CD010895F999FECF92BD81BDD0
:10F80000F89A992780B50895262FF999FECF1FBA47
:10F8100092BD81BD20BD0FB6F894FA9AF99A0FBE39
:08F8200001960895F894FFCF52
:04F828000F020A00C1
:040000033000E000E9
:00000001FF
